{"abi":[{"type":"function","name":"batchTransfer","inputs":[{"name":"tokens","type":"address[]","internalType":"address[]"},{"name":"recipients","type":"address[]","internalType":"address[]"},{"name":"amounts","type":"uint256[]","internalType":"uint256[]"}],"outputs":[],"stateMutability":"nonpayable"},{"type":"function","name":"manageTokens","inputs":[{"name":"token","type":"address","internalType":"address"},{"name":"spender","type":"address","internalType":"address"},{"name":"recipient","type":"address","internalType":"address"},{"name":"amount","type":"uint256","internalType":"uint256"}],"outputs":[],"stateMutability":"nonpayable"},{"type":"function","name":"simpleTransfer","inputs":[{"name":"token","type":"address","internalType":"address"},{"name":"recipient","type":"address","internalType":"address"},{"name":"amount","type":"uint256","internalType":"uint256"}],"outputs":[],"stateMutability":"nonpayable"},{"type":"event","name":"TokensManaged","inputs":[{"name":"token","type":"address","indexed":true,"internalType":"address"},{"name":"from","type":"address","indexed":true,"internalType":"address"},{"name":"to","type":"address","indexed":true,"internalType":"address"},{"name":"amount","type":"uint256","indexed":false,"internalType":"uint256"},{"name":"action","type":"string","indexed":false,"internalType":"string"}],"anonymous":false}],"bytecode":{"object":"0x6080604052348015600e575f80fd5b50610e758061001c5f395ff3fe608060405234801561000f575f80fd5b506004361061003f575f3560e01c806312e494061461004357806313d06a4c1461005f57806349ed86a51461007b575b5f80fd5b61005d600480360381019061005891906107ad565b610097565b005b610079600480360381019061007491906108b3565b6101d7565b005b61009560048036038101906100909190610963565b61045c565b005b5f8390508073ffffffffffffffffffffffffffffffffffffffff1663a9059cbb84846040518363ffffffff1660e01b81526004016100d69291906109e5565b6020604051808303815f875af11580156100f2573d5f803e3d5ffd5b505050506040513d601f19601f820116820180604052508101906101169190610a41565b610155576040517f08c379a000000000000000000000000000000000000000000000000000000000815260040161014c90610ac6565b60405180910390fd5b8273ffffffffffffffffffffffffffffffffffffffff163373ffffffffffffffffffffffffffffffffffffffff168573ffffffffffffffffffffffffffffffffffffffff167f8a3d60a31d039144a1450cfa61384d111ca3efefd5034efd70715543e7475c3c856040516101c99190610b2e565b60405180910390a450505050565b83839050868690501480156101f157508181905084849050145b610230576040517f08c379a000000000000000000000000000000000000000000000000000000000815260040161022790610ba4565b60405180910390fd5b5f5b86869050811015610453575f87878381811061025157610250610bc2565b5b90506020020160208101906102669190610bef565b90508073ffffffffffffffffffffffffffffffffffffffff1663a9059cbb87878581811061029757610296610bc2565b5b90506020020160208101906102ac9190610bef565b8686868181106102bf576102be610bc2565b5b905060200201356040518363ffffffff1660e01b81526004016102e39291906109e5565b6020604051808303815f875af11580156102ff573d5f803e3d5ffd5b505050506040513d601f19601f820116820180604052508101906103239190610a41565b610362576040517f08c379a000000000000000000000000000000000000000000000000000000000815260040161035990610c64565b60405180910390fd5b85858381811061037557610374610bc2565b5b905060200201602081019061038a9190610bef565b73ffffffffffffffffffffffffffffffffffffffff163373ffffffffffffffffffffffffffffffffffffffff168989858181106103ca576103c9610bc2565b5b90506020020160208101906103df9190610bef565b73ffffffffffffffffffffffffffffffffffffffff167f8a3d60a31d039144a1450cfa61384d111ca3efefd5034efd70715543e7475c3c87878781811061042957610428610bc2565b5b9050602002013560405161043d9190610ccc565b60405180910390a4508080600101915050610232565b50505050505050565b5f8490508073ffffffffffffffffffffffffffffffffffffffff1663095ea7b385846040518363ffffffff1660e01b815260040161049b9291906109e5565b6020604051808303815f875af11580156104b7573d5f803e3d5ffd5b505050506040513d601f19601f820116820180604052508101906104db9190610a41565b61051a576040517f08c379a000000000000000000000000000000000000000000000000000000000815260040161051190610d42565b60405180910390fd5b8073ffffffffffffffffffffffffffffffffffffffff1663a9059cbb84846040518363ffffffff1660e01b81526004016105559291906109e5565b6020604051808303815f875af1158015610571573d5f803e3d5ffd5b505050506040513d601f19601f820116820180604052508101906105959190610a41565b6105d4576040517f08c379a00000000000000000000000000000000000000000000000000000000081526004016105cb90610ac6565b60405180910390fd5b8073ffffffffffffffffffffffffffffffffffffffff1663a9059cbb8466b1a2bc2ec500006040518363ffffffff1660e01b8152600401610616929190610da2565b6020604051808303815f875af1158015610632573d5f803e3d5ffd5b505050506040513d601f19601f820116820180604052508101906106569190610a41565b610695576040517f08c379a000000000000000000000000000000000000000000000000000000000815260040161068c90610ac6565b60405180910390fd5b8273ffffffffffffffffffffffffffffffffffffffff163373ffffffffffffffffffffffffffffffffffffffff168673ffffffffffffffffffffffffffffffffffffffff167f8a3d60a31d039144a1450cfa61384d111ca3efefd5034efd70715543e7475c3c856040516107099190610e13565b60405180910390a45050505050565b5f80fd5b5f80fd5b5f73ffffffffffffffffffffffffffffffffffffffff82169050919050565b5f61074982610720565b9050919050565b6107598161073f565b8114610763575f80fd5b50565b5f8135905061077481610750565b92915050565b5f819050919050565b61078c8161077a565b8114610796575f80fd5b50565b5f813590506107a781610783565b92915050565b5f805f606084860312156107c4576107c3610718565b5b5f6107d186828701610766565b93505060206107e286828701610766565b92505060406107f386828701610799565b9150509250925092565b5f80fd5b5f80fd5b5f80fd5b5f8083601f84011261081e5761081d6107fd565b5b8235905067ffffffffffffffff81111561083b5761083a610801565b5b60208301915083602082028301111561085757610856610805565b5b9250929050565b5f8083601f840112610873576108726107fd565b5b8235905067ffffffffffffffff8111156108905761088f610801565b5b6020830191508360208202830111156108ac576108ab610805565b5b9250929050565b5f805f805f80606087890312156108cd576108cc610718565b5b5f87013567ffffffffffffffff8111156108ea576108e961071c565b5b6108f689828a01610809565b9650965050602087013567ffffffffffffffff8111156109195761091861071c565b5b61092589828a01610809565b9450945050604087013567ffffffffffffffff8111156109485761094761071c565b5b61095489828a0161085e565b92509250509295509295509295565b5f805f806080858703121561097b5761097a610718565b5b5f61098887828801610766565b945050602061099987828801610766565b93505060406109aa87828801610766565b92505060606109bb87828801610799565b91505092959194509250565b6109d08161073f565b82525050565b6109df8161077a565b82525050565b5f6040820190506109f85f8301856109c7565b610a0560208301846109d6565b9392505050565b5f8115159050919050565b610a2081610a0c565b8114610a2a575f80fd5b50565b5f81519050610a3b81610a17565b92915050565b5f60208284031215610a5657610a55610718565b5b5f610a6384828501610a2d565b91505092915050565b5f82825260208201905092915050565b7f5472616e73666572206661696c656400000000000000000000000000000000005f82015250565b5f610ab0600f83610a6c565b9150610abb82610a7c565b602082019050919050565b5f6020820190508181035f830152610add81610aa4565b9050919050565b7f73696d706c655f7472616e7366657200000000000000000000000000000000005f82015250565b5f610b18600f83610a6c565b9150610b2382610ae4565b602082019050919050565b5f604082019050610b415f8301846109d6565b8181036020830152610b5281610b0c565b905092915050565b7f4172726179206c656e677468206d69736d6174636800000000000000000000005f82015250565b5f610b8e601583610a6c565b9150610b9982610b5a565b602082019050919050565b5f6020820190508181035f830152610bbb81610b82565b9050919050565b7f4e487b71000000000000000000000000000000000000000000000000000000005f52603260045260245ffd5b5f60208284031215610c0457610c03610718565b5b5f610c1184828501610766565b91505092915050565b7f4261746368207472616e73666572206661696c656400000000000000000000005f82015250565b5f610c4e601583610a6c565b9150610c5982610c1a565b602082019050919050565b5f6020820190508181035f830152610c7b81610c42565b9050919050565b7f62617463685f7472616e736665720000000000000000000000000000000000005f82015250565b5f610cb6600e83610a6c565b9150610cc182610c82565b602082019050919050565b5f604082019050610cdf5f8301846109d6565b8181036020830152610cf081610caa565b905092915050565b7f417070726f76616c206661696c656400000000000000000000000000000000005f82015250565b5f610d2c600f83610a6c565b9150610d3782610cf8565b602082019050919050565b5f6020820190508181035f830152610d5981610d20565b9050919050565b5f819050919050565b5f819050919050565b5f610d8c610d87610d8284610d60565b610d69565b61077a565b9050919050565b610d9c81610d72565b82525050565b5f604082019050610db55f8301856109c7565b610dc26020830184610d93565b9392505050565b7f617070726f76655f616e645f7472616e736665720000000000000000000000005f82015250565b5f610dfd601483610a6c565b9150610e0882610dc9565b602082019050919050565b5f604082019050610e265f8301846109d6565b8181036020830152610e3781610df1565b90509291505056fea2646970667358221220d7ae74f51884e32b526c556fe4ee1111e30ad9c57d19d59a077be9a55cda1d5d64736f6c634300081a0033","linkReferences":{}},"methodIdentifiers":{"batchTransfer(address[],address[],uint256[])":"13d06a4c","manageTokens(address,address,address,uint256)":"49ed86a5","simpleTransfer(address,address,uint256)":"12e49406"},"id":0}